:020000040800F2
:10000000008001206D1800083D0400083F0400082E
:1000100041040008430400084504000800000000F3
:10002000000000000000000000000000470400087D
:1000300049040008000000004B0400084D040008BB
:10004000BD180008BD180008BD180008BD1800083C
:10005000BD180008BD180008BD180008BD1800082C
:10006000BD180008BD180008BD180008BD1800081C
:10007000BD180008BD180008BD180008BD1800080C
:10008000BD180008BD180008BD18000800000000D9
:10009000000000000000000000000000BD18000883
:1000A000BD180008BD180008BD180008BD180008DC
:1000B000BD180008BD180008BD180008BD180008CC
:1000C000BD180008BD180008BD180008BD180008BC
:1000D000BD18000855040008BD1800080000000005
:1000E00065040008BD180008BD18000800000000E5
:1000F000000000000000000000000000BD18000823
:1001000000000000BD180008BD180008BD18000858
:1001100000000000000000000000000000000000DF
:10012000BD180008BD180008BD180008BD1800085B
:10013000BD180008000000000000000000000000E2
:10014000000000000000000000000000BD180008D2
:10015000BD180008BD180008BD180008BD1800082B
:10016000BD180008BD1800080000000000000000D5
:10017000000000000000000000000000000000007F
:1001800000000000BD180008000000000000000092
:04019000BD1800088E
:10019400034613F8012B002AFBD1181A01387047C3
:1001A40053B94AB9002908BF00281CBF4FF0FF31DA
:1001B4004FF0FF3000F00CB8ADF1080C6DE904CE3F
:1001C40001F00EFEDDF804E0DDE9022304B070471F
:1001D400704700BF10B5054C237833B9044B13B1F5
:1001E4000448AFF300800123237010BD6800002091
:1001F40000000000A020000808B5034B1BB1034910
:100204000348AFF3008008BD000000006C0000202C
:10021400A020000830B58BB0002405940694079400
:10022400089409940194274B1A6B42F004021A6350
:100234001A6B02F004020192019A02941A6B42F0C2
:1002440080021A631A6B02F080020292029A0394EB
:100254001A6B42F001021A631A6B02F00102039254
:10026400039A04941A6B42F002021A631B6B03F0A4
:1002740002030493049B144D22464FF490712846C4
:1002840000F0E0FB4FF4005305934FF4041306937E
:10029400079405A90D4800F0F1FA4FF49073059303
:1002A400012306930794089405A9284600F0E6FA6A
:1002B40022462146282000F05BFA282000F068FA44
:1002C4000BB030BD0038024000000240000802407C
:1002D40010B50446FFF75CFF4FF47A7382B22146EF
:1002E400064801F05EF808B1012010BD044B1B68FC
:1002F400986801F08FFB0020F7E700BF3801002069
:100304001800002072B6FEE700B595B03022002137
:1003140008A801F098FC0023039304930593069323
:10032400079301931F4A116C41F080511164126CC0
:1003340002F080520192019A02931B490A6822F446
:10034400404242F400420A600A6802F440420292C7
:10035400029A0221089101220B9210220C920E9112
:100364000F9310924FF4A87311930423129307234D
:10037400139308A800F07CFB80B90F230393022198
:100384000491002305934FF480520692079303A827
:1003940000F0D8FD20B915B05DF804FBFFF7B2FFFB
:1003A400FFF7B0FF003802400070004008B500F0CD
:1003B4004BF9FFF7A9FFFFF72DFF00F09FF800F0BE
:1003C40083F801224FF48071084800F03BFB05E0FC
:1003D4000748FFF77DFFC82000F062F9B422044902
:1003E400044801F02EFA0028F2D0F4E7000002409D
:1003F400840000208001002000B583B0002100911A
:100404000C4B5A6C42F480425A645A6C02F4804297
:100414000092009A01911A6C42F080521A641B6C8B
:1004240003F080530193019B072000F08FF903B080
:100434005DF804FB00380240FEE7FEE7FEE7FEE756
:10044400FEE770477047704708B500F017F908BD1C
:1004540008B5024801F098F808BD00BF80010020EB
:1004640008B54FF4005000F0F5FA08BD70B50C461D
:100474001646002506E0AFF30080214601F8010B83
:1004840001350C46B542F6DB304670BD70B50C46FE
:100494001646002504E014F8010BAFF30080013583
:1004A400B542F8DB304670BD4FF0FF307047002096
:1004B40070470000034AD2F8883043F47003C2F84E
:1004C4008830704700ED00E008B50A480A4B036025
:1004D4004FF41653436000238360C36003610C220E
:1004E40042618361C36100F02CFF00B908BDFFF7CE
:1004F40009FFFBE7800100200010014008B50A480D
:100504000A4B03604FF4E133436000238360C3600C
:1005140003610C2242618361C36100F012FF00B9E0
:1005240008BDFFF7EFFEFBE7380100200044004060
:1005340010B58AB000230593069307930893099393
:1005440003682A4A934204D0294A93422DD00AB020
:1005540010BD00240194274B5A6C42F010025A64D7
:100564005A6C02F010020192019A02941A6B42F042
:1005740001021A631B6B03F001030293029B4FF405
:10058400C063059302230693032308930723099367
:1005940005A9194800F072F922462146252000F0E9
:1005A400E7F8252000F0F4F8D1E700210391114B7E
:1005B4001A6C42F400321A641A6C02F40032039288
:1005C400039A04911A6B42F001021A631B6B03F045
:1005D40001030493049B0C2305930223069307232E
:1005E400099305A9044800F049F9B0E70010014057
:1005F40000440040003802400000024010B50446A8
:100604000E4B1A784FF47A73B3FBF2F30C4A10686A
:10061400B0FBF3F000F0C0F868B90F2C01D9012049
:100624000AE0002221464FF0FF3000F0A1F8054B0C
:100634001C60002000E0012010BD00BF0400002069
:10064400000000200800002008B50B4B1A6842F493
:1006540000721A601A6842F480621A601A6842F4DE
:1006640080721A60032000F071F80020FFF7C6FFC3
:10067400FFF7C2FE002008BD003C0240034A116897
:10068400034B1B780B441360704700BFC801002064
:1006940004000020014B1868704700BFC801002007
:1006A40038B50446FFF7F6FF0546B4F1FF3F02D024
:1006B400044B1B781C44FFF7EDFF401BA042FAD308
:1006C40038BD00BF04000020002807DB00F01F0233
:1006D400400901239340024A42F82030704700BF8A
:1006E40000E100E0002808DB0901C9B200F1604024
:1006F40000F5614080F80013704700F00F00090115
:10070400C9B2014B1954704714ED00E000B500F074
:100714000700C0F1070CBCF1040F28BF4FF0040C14
:10072400031D062B0FD9C31E4FF0FF3E0EFA0CF02B
:1007340021EA000199400EFA03FE22EA0E0241EA80
:1007440002005DF804FB0023EEE70000074AD368CB
:1007540023F4E0631B041B0C000200F4E060034379
:1007640043F0BF6343F40033D360704700ED00E00F
:1007740010B50446054BD868C0F30220FFF7C6FF46
:1007840001462046FFF7AEFF10BD00BF00ED00E0BC
:1007940008B5FFF799FF08BD0138B0F1807F0BD28F
:1007A4004FF0E0235861054AF02182F8231000201D
:1007B400986107221A6170470120704700ED00E03C
:1007C40070B50446866DFFF765FF94F83530DBB2EB
:1007D400022B06D080236365002384F83430012083
:1007E40070BD05462268136823F01603136022685F
:1007F400536923F080035361236CE3B122681368C7
:1008040023F0080313602268136823F001031360C4
:1008140023681B6813F0010F11D0FFF73BFF431B44
:10082400052BF5D920236365032084F835000023C4
:1008340084F83430D4E7A36C002BDFD1E3E7E26D16
:100844003F239340B360012384F83530002084F8BB
:100854003400C5E790F83530DBB2022B03D0802397
:10086400436501207047052380F83530026813681A
:1008740023F00103136000207047000000230F2BB6
:1008840000F2D78070B582B065E085684FEA430E08
:10089400032404FA0EF425EA0405CC6804FA0EF4E1
:1008A4002C438460446824EA02044A68C2F30012B8
:1008B4009A40224342605CE0DC08083450F824206B
:1008C40003F00705AD004FF00F0E0EFA05FE22EA05
:1008D4000E0E0A69AA4042EA0E0240F824205CE0A7
:1008E400042200E0002202FA0EF22A430234514D9F
:1008F40045F82420504A94686FEA0C0224EA0C0557
:100904004E6816F4801F01D04CEA04054A4CA560D9
:10091400E46802EA04054E6816F4001F01D04CEAAC
:100924000405454CE560646802EA04054E6816F463
:10093400003F01D04CEA04053F4C65602468224026
:100944004D6815F4803F01D04CEA04023A4C226011
:1009540001330F2B6BD801229A400C6804EA020C75
:1009640032EA0404F4D14C6804F00304013C012C81
:100974008BD94A6802F00302032A09D0C4685D00D7
:100984000322AA4024EA02048A68AA402243C260DD
:100994004A6802F00302022A8ED004684FEA430E2A
:1009A400032202FA0EF224EA02044A6802F0030265
:1009B40002FA0EF2224302604A6812F4403FC7D0A2
:1009C400002201921D4A546C44F480445464526CD5
:1009D40002F480420192019A9C08A51C154A52F81F
:1009E400255003F0030E4FEA8E0E0F2202FA0EF288
:1009F40025EA0205124A90423FF474AF02F5806280
:100A040090420ED002F5806290420CD002F58062D2
:100A140090420AD002F5806290423FF461AF07220F
:100A240061E701225FE702225DE703225BE702B090
:100A340070BD704700380140003C0140003802405E
:100A4400000002400AB18161704709048161704766
:100A54007047000008B5054B5B69034200D108BD2F
:100A6400024B5861FFF7F4FFF9E700BF003C014077
:100A7400002800F0E08170B582B00446036813F0EA
:100A8400010F3BD09F4B9B6803F00C03042B2CD02D
:100A94009C4B9B6803F00C03082B21D06368B3F5CF
:100AA400803F4FD0B3F5A02F52D0964B1A6822F452
:100AB40080321A601A6822F480221A606368002B5C
:100AC40050D0FFF7E7FD05468E4B1B6813F4003F3B
:100AD40014D1FFF7DFFD401B6428F5D90320B1E1F1
:100AE400884B5B6813F4800FD8D0864B1B6813F4D3
:100AF400003F03D06368002B00F09F81236813F04C
:100B0400020F54D07F4B9B6813F00C0F3ED07D4BEB
:100B14009B6803F00C03082B33D0E368002B68D0E8
:100B2400794B01221A60FFF7B5FD0546754B1B682A
:100B340013F0020F54D1FFF7ADFD401B0228F5D985
:100B440003207FE16F4A136843F480331360B5E7F1
:100B54006C4B1A6842F480221A601A6842F480329C
:100B64001A60ABE7FFF796FD0546664B1B6813F466
:100B7400003FC3D0FFF78EFD401B6428F5D9032046
:100B840060E1604B5B6813F4800FC6D15D4B1B685A
:100B940013F0020F03D0E368012B40F05081594A4F
:100BA400136823F0F803216943EAC103136023683F
:100BB40013F0080F42D063696BB3534B0122C3F89F
:100BC400802EFFF767FD05464E4B5B6F13F0020F57
:100BD40034D1FFF75FFD401B0228F5D9032031E132
:100BE400484A136823F0F803216943EAC1031360F8
:100BF400DDE7454B00221A60FFF74CFD0546414BEB
:100C04001B6813F0020FD2D0FFF744FD401B0228EB
:100C1400F5D9032016E13C4B0022C3F8802EFFF7E0
:100C240039FD0546374B5B6F13F0020F06D0FFF713
:100C340031FD401B0228F5D9032003E1236813F09A
:100C4400040F77D02F4B1B6C13F0805F33D100233C
:100C540001932C4B1A6C42F080521A641B6C03F003
:100C640080530193019B0125284B1B6813F4807F5B
:100C740023D0A368012B34D0052B38D0214B1A6F15
:100C840022F001021A671A6F22F004021A67A3689D
:100C9400002B3DD0FFF7FEFC06461A4B1B6F13F0EA
:100CA400020F46D1FFF7F6FC801B41F288339842CD
:100CB400F3D90320C6E00025D6E7144A136843F4A9
:100CC40080731360FFF7E6FC0646104B1B6813F4B1
:100CD400807FCED1FFF7DEFC801B0228F5D90320EC
:100CE400B0E0084A136F43F001031367CFE7054BE5
:100CF4001A6F42F004021A671A6F42F001021A676F
:100D0400C5E700BF003802400000474200700040C1
:100D1400FFF7C0FC0646524B1B6F13F0020F08D0BE
:100D2400FFF7B8FC801B41F288339842F3D90320C3
:100D340088E0EDB9A369002B00F08380484A9268EB
:100D440002F00C02082A51D0022B17D0454B002286
:100D54001A66FFF79FFC0446414B1B6813F0007FA3
:100D640042D0FFF797FC001B0228F5D9032069E065
:100D74003B4A136C23F080531364DBE7394B0022A6
:100D84001A66FFF787FC0546354B1B6813F0007F96
:100D940006D0FFF77FFC401B0228F5D9032051E061
:100DA400E369226A1343626A43EA8213A26A52081D
:100DB400013A43EA0243E26A43EA0263284A53607F
:100DC400284B01221A66FFF765FC0446244B1B6876
:100DD40013F0007F06D1FFF75DFC001B0228F5D954
:100DE40003202FE000202DE000202BE0012B2BD04E
:100DF4001B4B5B6803F48001E269914226D103F046
:100E04003F02216A8A4223D1616A47F6C0721A40BE
:100E1400B2EB811F1ED103F44031A26A5208013A99
:100E2400B1EB024F18D103F07063E26AB3EB026FC7
:100E340014D1002006E001207047012002E00120C7
:100E440000E0002002B070BD0120FBE70120F9E7BB
:100E54000120F7E70120F5E70120F3E70120F1E79E
:100E6400003802400000474208B5334B9B6803F04A
:100E74000C03042B5BD0082B5BD12F4B5A6802F078
:100E84003F025B6813F4800F2CD02B4B5868C0F3DF
:100E940088104FEA401CBCEB000C6EEB0E0E4FEAC0
:100EA4008E1343EA9C634FEA8C11B1EB0C0163EBA4
:100EB4000E03DB0043EA5173C90011EB000C43F14C
:100EC4000003590200234FEA4C2041EADC51FFF7AA
:100ED40067F9194B5B68C3F3014301335B00B0FB53
:100EE400F3F008BD144B5868C0F388104FEA401C57
:100EF400BCEB000C6EEB0E0E4FEA8E1343EA9C63C0
:100F04004FEA8C11B1EB0C0163EB0E03DB0043EAF7
:100F14005173C90011EB000C43F100039902002343
:100F24004FEA8C2041EA9C51FFF73AF9D1E7034894
:100F3400D7E70348D5E700BF0038024000127A0023
:100F44000024F400002800F09B8070B50D46044690
:100F54004F4B1B6803F007038B4208D2CBB24C4AB9
:100F64001370136803F007038B4240F08B802368EF
:100F740013F0020F17D013F0040F04D0454A9368FE
:100F840043F4E0539360236813F0080F04D0414AFC
:100F9400936843F4604393603E4A936823F0F003FC
:100FA400A1680B439360236813F0010F32D0636888
:100FB400012B21D09A1E012A25D9364A126812F033
:100FC400020F61D033498A6822F0030213438B6015
:100FD400FFF760FB06462F4B9B6803F00C03626827
:100FE400B3EB820F16D0FFF755FB801B41F2883319
:100FF4009842F0D9032042E0264A126812F4003FD6
:10100400E0D101203BE0234A126812F0007FD9D1DD
:10101400012034E01E4B1B6803F00703AB4207D9E1
:10102400EAB21B4B1A701B6803F00703AB422DD1C5
:10103400236813F0040F06D0164A936823F4E05390
:10104400E1680B439360236813F0080F07D0114A3B
:10105400936823F46043216943EAC1039360FFF773
:1010640003FF0C4B9B68C3F303130B4AD35CD840B8
:101074000A4B18600A4B1868FFF7C0FA002070BDCD
:10108400012070470120FAE70120F8E70120F6E784
:10109400003C024000380240C0200008000000204C
:1010A40008000020014B1868704700BF00000020B2
:1010B40008B5FFF7F7FF044B9B68C3F38223034A89
:1010C400D35CD84008BD00BF00380240B8200008F7
:1010D40008B5FFF7E7FF044B9B68C3F34233034AA9
:1010E400D35CD84008BD00BF00380240B8200008D7
:1010F400026802F10C0353E8003F23F490730C32AE
:1011040042E800310029F3D1026802F1140353E8E4
:10111400003F23F00103143242E800310029F3D1E7
:10112400036B012B05D0202380F842300023036396
:101134007047026802F10C0353E8003F23F01003E8
:101144000C3242E800310029F3D1ECE790F8413049
:10115400DBB2212B01D0022070478368B3F5805F96
:1011640017D0036A5A1C02621A7803685A60C38C47
:101174009BB2013B9BB2C3844BB90268D36823F092
:101184008003D3600268D36843F04003D360002037
:1011940070470369002BE4D1036A1B880268C3F318
:1011A40008035360036A02330362E0E710B50446A0
:1011B4000268136923F44053C1680B4313618368C5
:1011C40002691A4343691A43C3691A430168CB6825
:1011D40023F4164323F00C031343CB6002685369D2
:1011E40023F4407381690B4353610368314A93428A
:1011F40006D002F58062934202D0FFF759FF01E066
:10120400FFF766FFE369B3F5004F29D00021031807
:1012140049411B1841F10001C90041EA5371DB0047
:10122400181863684FEA83024FEA937341F100018F
:10123400FEF7B6FF204AA2FB00314909642303FBF1
:1012440011031B013233A2FB03235B0903F0F002F9
:1012540002EB011203F00F03216813448B6010BDED
:101264000023021843EB0301121841F10001C900E5
:1012740041EA5271D200101841F1000162689218DB
:101284005B41FEF78DFF0C4AA2FB00314909642340
:1012940003FB1103DB003233A2FB03235B095A0077
:1012A40002F4F87202EB011203F0070321681344FD
:1012B4008B60D4E7001001401F85EB512DE9F0430A
:1012C40083B005460E4617469946DDF828802B68FC
:1012D4001C6836EA04040CBF01240024BC4228D153
:1012E400B8F1FF3FF3D0FFF7D5F9A0EB0900404573
:1012F40023D8B8F1000F22D02B68DA6812F0040F5B
:10130400E5D0802EE3D0402EE1D01A6812F0080F09
:10131400DDD0002401941A6801925B680193019B5B
:101324002846FFF7E5FE08236B6485F8404001205A
:1013340000E0002003B0BDE8F0830320FAE70320B7
:10134400F8E760B310B5044690F8413013B3242392
:1013540084F841302268D36823F40053D3602046D4
:10136400FFF724FF2268136923F490431361226872
:10137400536923F02A0353612268D36843F400536A
:10138400D36000206064202384F8413084F8423024
:10139400606310BD80F84030FFF7CAF8D7E701203A
:1013A40070472DE9F04182B01E4690F84130DBB21F
:1013B400202B56D104460D469046002955D00AB933
:1013C40001204FE000234364212380F84130FFF7DC
:1013D40061F90746A4F82480A4F82680A368B3F52D
:1013E400805F02D04FF0000814E023692BB34FF064
:1013F40000080FE0202384F84130032032E038F85D
:10140400023B2268C3F308035360E28C92B2013AB0
:1014140092B2E284E38C9BB293B100963B460022E5
:1014240080212046FFF74AFF0028E3D1002DE6D0B3
:1014340015F8012B23685A60E7E7A8460025E9E779
:1014440000963B46002240212046FFF737FF18B99B
:10145400202384F8413005E0202384F84130032020
:1014640000E0022002B0BDE8F0810120FAE77047F5
:1014740008B50168CA6822F04002CA60202280F8D8
:101484004120FFF7F4FF002008BD7047704708B5FE
:10149400806B0023C385C384FFF7F8FF08BD704742
:1014A40090F84230DBB2222B69D18368B3F5805FB8
:1014B4004FD0826AB3F5805F04D0002B56D1036904
:1014C400002B53D103685B681370836A0133836212
:1014D400C38D9BB2013B9BB2C385002B51D100B598
:1014E40083B00268D36823F02003D3600268D36812
:1014F40023F48073D3600268536923F001035361BA
:10150400202380F8423000234363036B012B33D143
:1015140000230363026802F10C0353E8003F23F045
:1015240010030C3242E800310029F3D103681A6831
:1015340012F0100F06D0002201921A6801925B6823
:101544000193019B818DFFF7AAFF002003B05DF892
:1015540004FB0269002AACD1826A03685B68C3F3A6
:1015640008031380836A02338362B1E703685B680C
:1015740003F07F031370A8E7FFF787FFE5E7022076
:10158400704700207047000010B582B0044602681E
:101594001368D068516913F00F0F09D113F0200FAD
:1015A4000CD010F0200F09D02046FFF779FF16E089
:1015B40011F0010115D110F4907F12D1216B012992
:1015C40079D013F0800F03D010F0800F40F0148115
:1015D40013F0400F03D010F0400F40F0118102B01F
:1015E40010BD13F0010F06D010F4807F03D0626C9D
:1015F40042F00102626413F0040F04D019B1626C6A
:1016040042F00202626413F0020F04D019B1626C5A
:1016140042F00402626413F0080F07D010F0200FA8
:1016240000D119B1626C42F008026264626C002A53
:10163400D5D013F0200F02D010F0200F29D1236849
:101644005B6903F04003626C12F0080F00D163B3CE
:101654002046FFF74DFD23685B6913F0400F20D04F
:10166400226802F1140353E8003F23F040031432CC
:1016740042E800310029F3D1E36B73B1624A1A6581
:10168400E06BFFF7E7F80028A9D0E06B036D9847FB
:10169400A5E72046FFF704FFD1E72046FFF7F6FE53
:1016A4009DE72046FFF7F2FE99E72046FFF7EEFE9E
:1016B4000023636493E713F0100F82D010F0100F2F
:1016C4003FF47FAF002301931368019353680193A0
:1016D400019B536913F0400F52D0E26B13685B68AF
:1016E4009BB2002B3FF47BAFA18D99427FF677AF7D
:1016F400E385D369B3F5807F37D0226802F10C0308
:1017040053E8003F23F480730C3242E8003100298F
:10171400F3D1226802F1140353E8003F23F00103DC
:10172400143242E800310029F3D1226802F1140393
:1017340053E8003F23F04003143242E8003100290B
:10174400F3D1202384F8423000232363226802F17A
:101754000C0353E8003F23F010030C3242E800313D
:101764000029F3D1E06BFFF72BF802236363A18D0B
:10177400E38D9BB2C91A89B22046FFF790FE2EE78B
:10178400A18DE38D9BB2C91A89B2E38D9BB2002B64
:101794003FF425AF00293FF422AF226802F10C0385
:1017A40053E8003F23F490730C3242E800300028E1
:1017B400F3D1226802F1140353E8003F23F001033C
:1017C400143242E800300028F3D1202384F8423058
:1017D40000232363226802F10C0353E8003F23F043
:1017E40010030C3242E800300028F3D10223636373
:1017F4002046FFF754FEF2E62046FFF7A7FCEEE68C
:101804002046FFF735FEEAE69314000881628285DC
:10181400C28500234364222380F84230036923B144
:101824000268D36843F48073D3600268536943F059
:10183400010353610268D36843F02003D36000209E
:10184400704708B590F84230DBB2202B08D149B17B
:101854000AB9012008BD00230363FFF7D7FFF9E7A6
:101864000220F7E70120F5E7DFF834D0FEF722FE87
:101874000C480D490D4A002302E0D458C4500433E7
:10188400C4188C42F9D30A4A0A4C002301E01360BD
:101894000432A242FBD300F025FAFEF787FD70471D
:1018A400008001200000002068000020E0200008E3
:1018B4006800002014030020FEE70000B1F90C20AA
:1018C4002DE9F041160705460C4654D44B68002B0D
:1018D40002DC0B6C002B48DDE66A002E45D00023A9
:1018E40012F480522F68216A2B6030D0626DA38974
:1018F400590705D56368D21A636B0BB1236CD21AEE
:101904000023E66A216A2846B047431CA38906D10E
:1019140029681D292BD82A4ACA40D60727D5002270
:101924006260D9042269226004D5421C01D12B686B
:1019340003B96065616B2F60B9B104F14403994246
:1019440002D0284600F0F6F9002363630DE001237A
:101954002846B0470246501CC9D12B68002BC6D07C
:101964001D2B01D0162B1ED12F60002022E043F046
:1019740040031BB21BE00F69002FF6D093070E68DB
:1019840008BF4B690F6018BF0023A6EB07088B60E4
:10199400B8F1000FE9DD216AA66A43463A462846B3
:1019A400B047002808DCB4F90C3043F04003A381AD
:1019B4004FF0FF30BDE8F0810744A8EB0008E7E7EB
:1019C4000100402038B50B6905460C4613B90025C3
:1019D400284638BD18B1036A0BB900F0BBF8B4F956
:1019E4000C30002BF3D0626ED00704D4990502D4D6
:1019F400A06D00F09CF928462146FFF75FFF636E57
:101A0400DA070546E4D4A3899B05E1D4A06D00F070
:101A14008FF9DDE7014620B9044A0549054800F07D
:101A2400B1B8054B1868FFF7CDBF00BF0C0000200C
:101A3400C91900081C00002018000020002310B55C
:101A44000446C0E90033C0E90433836081814366FE
:101A5400C2818361194608225C3000F0F4F80D4B12
:101A640063620D4BA3620D4BE3620D4B23630D4B7D
:101A740024629C4206D003F16802944202D0D0331F
:101A84009C4205D104F15800BDE8104000F04EB965
:101A940010BD00BFC51B0008E71B00081F1C000881
:101AA400431C0008CC010020024A0349034800F00B
:101AB40069B800BF0C000020C91900081C000020F0
:101AC40041680C4B994210B5044601D0FFF77AFFE8
:101AD400A168094B994202D02046FFF773FFE168E1
:101AE400064B994204D02046BDE81040FFF76ABF78
:101AF40010BD00BFCC010020340200209C02002055
:101B040010B50B4B0B4C0C4A1A60204600220421E2
:101B1400FFF794FF04F1680001220921FFF78EFF0B
:101B240004F1D0000222BDE810401221FFF786BF65
:101B340004030020CC010020AD1A0008014800F085
:101B4400F6B800BF0D030020014800F0F1B800BF53
:101B54000D03002010B50446FFF7F0FF236A1BB104
:101B6400BDE81040FFF7F0BF044B2362044B1B6831
:101B7400002BF5D1FFF7C4FFF2E700BFC51A000838
:101B8400040300202DE9F84307468846144600263E
:101B9400D4E90195B9F1010905D52468002CF7D1E0
:101BA4003046BDE8F883AB89012B07D9B5F90E306F
:101BB400013303D029463846C04706436835E9E770
:101BC40010B50C46B1F90E1000F068F80028ABBF50
:101BD400636DA3891B1823F48053ACBF6365A38191
:101BE40010BD2DE9F0411F468B89DB0505460C46E7
:101BF400164605D5B1F90E100223002200F03CF878
:101C0400A389B4F90E1023F48053A38132463B46D2
:101C14002846BDE8F04100F053B810B50C46B1F9C0
:101C24000E1000F029F8431CA38915BF606523F446
:101C3400805343F48053A38118BFA38110BDB1F92D
:101C44000E1000F009B802440346934200D17047D5
:101C540003F8011BF9E7000038B5064D00230446DC
:101C640008462B60FEF720FC431C02D12B6803B10D
:101C7400236038BD0803002038B5074D04460846E4
:101C8400114600222A601A46FEF711FC431C02D1B9
:101C94002B6803B1236038BD0803002038B5074D15
:101CA40004460846114600222A601A46FEF7DEFB67
:101CB400431C02D12B6803B1236038BD0803002004
:101CC40038B5074D04460846114600222A601A46D4
:101CD400FEF7DCFB431C02D12B6803B1236038BD43
:101CE4000803002070B50D4D0D4C641BA410002694
:101CF400A64209D10B4D0C4C00F0D0F9641BA41082
:101D04000026A64205D170BD55F8043B984701361C
:101D1400EEE755F8043B98470136F2E7D82000086F
:101D2400D8200008D8200008DC200008704770473D
:101D34007047000038B50546002941D051F8043CED
:101D44000C1F002BB8BFE41800F03EF81D4A1368BE
:101D540033B9636014602846BDE8384000F03AB8EF
:101D6400A34208D9206821188B4201BF19685B6817
:101D740009182160EDE71A465B680BB1A342FAD952
:101D840011685018A0420BD12068014450188342B6
:101D94001160E0D118685B68536008441060DAE7AA
:101DA40002D90C232B60D6E7206821188B4204BF8C
:101DB40019685B68636004BF091821605460CAE74E
:101DC40038BD00BF100300200148FFF7B0BF00BFBB
:101DD4000C0300200148FFF7ABBF00BF0C03002039
:101DE4002DE9F047089D0E4604460F46002B4AD1C4
:101DF40094468C45B2FA82F260D942B1C2F1200312
:101E0400974020FA03F30CFA02FC1F4394404FEA74
:101E14001C4E1FFA8CF6B7FBFEF1230C0EFB117758
:101E240043EA074301FB06F098420AD91CEB03037B
:101E340001F1FF3780F01581984240F21281023996
:101E440063441B1AA4B2B3FBFEF00EFB103344EA46
:101E5400034400FB06F6A6420AD91CEB040400F175
:101E6400FF3380F00081A64240F2FD8064440238D2
:101E740040EA0140A41B00211DB1D4400023C5E960
:101E84000043BDE8F0878B4205D90DB1C5E90001D7
:101E940000210846F5E7B3FA83F1002946D1B3429D
:101EA40002D3824200F2F580841A66EB0302012019
:101EB4001746002DE5D0C5E90047E2E7002A40F0C7
:101EC4009380A1EB0C034FEA1C471FFA8CFE0121FF
:101ED400B3FBF7F607FB1630230C43EA00430EFB73
:101EE40006F0984208D91CEB030306F1FF3802D22E
:101EF400984200F2D08046461B1AA4B2B3FBF7F016
:101F040007FB103344EA03440EFB00FEA64508D940
:101F14001CEB040400F1FF3302D2A64500F2B680A4
:101F24001846A4EB0E0440EA0640A5E7C1F12007D9
:101F34008B4022FA07FC4CEA030C06FA01FE20FA55
:101F440007F426FA07F344EA0E0400FA01F84FEA0C
:101F54001C404FEA1449B3FBF0FE1FFA8CF600FB59
:101F64001E3349EA03430EFB06F9994502FA01F2CE
:101F74000BD91CEB03030EF1FF3A80F085809945E1
:101F840040F28280AEF1020E6344A3EB0909A4B2CD
:101F9400B9FBF0F300FB139944EA094403FB06F68A
:101FA400A64208D91CEB040403F1FF3068D2A64210
:101FB40066D9023B644443EA0E40A41BA0FB02E63C
:101FC400B4427346B14652D34FD05DB1B8EB03026D
:101FD40064EB090404FA07F722FA01F31F43CC4027
:101FE400C5E9007400214CE7C2F1200120FA01F395
:101FF4000CFA02FC26FA01F1964033434FEA1C47DF
:102004001FFA8CFEB1FBF7F007FB1016190C41EA1E
:10201400064100FB0EF68E4204FA02F408D91CEBCA
:10202400010100F1FF382DD28E422BD902386144D0
:10203400891B9BB2B1FBF7F607FB161143EA014378
:1020440006FB0EF1994208D91CEB030306F1FF3895
:1020540014D2994212D9023E63445B1A46EA004103
:1020640036E73946EDE6184602E7F045ADD2BEEB59
:10207400020366EB0C060138B146A6E74646ECE7D8
:10208400034698E74046D3E7D6467EE764440238E1
:1020940047E708460DE7023E63442DE7F8B500BF65
:1020A400F8BC08BC9E467047F8B500BFF8BC08BC35
:0420B4009E4670478D
:1020B800000000000102030400000000000000000E
:0820C8000102030406070809E8
:0820D000C4E0FF7F01000000E5
:0420D800FD010008FE
:0420DC00D90100081E
:1020E0000024F400010000001000000000000000C7
:1020F00003000000CC0100201C00002000000000B4
:10210000CC010020340200209C02002000000000CE
:1021100000000000000000000000000000000000BF
:1021200000000000000000000000000000000000AF
:10213000000000000000000000000000000000009F
:08214000000000000000000097
:040000050800186D6A
:00000001FF
